{
  "contractName": "DepositGraph",
  "abi": [
    {
      "inputs": [
        {
          "internalType": "address",
          "name": "_admin",
          "type": "address"
        }
      ],
      "stateMutability": "nonpayable",
      "type": "constructor"
    },
    {
      "inputs": [
        {
          "internalType": "address",
          "name": "owner",
          "type": "address"
        }
      ],
      "name": "OwnableInvalidOwner",
      "type": "error"
    },
    {
      "inputs": [
        {
          "internalType": "address",
          "name": "account",
          "type": "address"
        }
      ],
      "name": "OwnableUnauthorizedAccount",
      "type": "error"
    },
    {
      "anonymous": false,
      "inputs": [
        {
          "indexed": false,
          "internalType": "uint256",
          "name": "chainId",
          "type": "uint256"
        }
      ],
      "name": "ChainIdSet",
      "type": "event"
    },
    {
      "anonymous": false,
      "inputs": [
        {
          "indexed": true,
          "internalType": "address",
          "name": "previousOwner",
          "type": "address"
        },
        {
          "indexed": true,
          "internalType": "address",
          "name": "newOwner",
          "type": "address"
        }
      ],
      "name": "OwnershipTransferred",
      "type": "event"
    },
    {
      "anonymous": false,
      "inputs": [
        {
          "indexed": true,
          "internalType": "address",
          "name": "user",
          "type": "address"
        },
        {
          "indexed": false,
          "internalType": "uint256",
          "name": "newShares",
          "type": "uint256"
        },
        {
          "indexed": false,
          "internalType": "uint256",
          "name": "chainId",
          "type": "uint256"
        }
      ],
      "name": "SharesUpdated",
      "type": "event"
    },
    {
      "anonymous": false,
      "inputs": [
        {
          "indexed": true,
          "internalType": "address",
          "name": "user",
          "type": "address"
        },
        {
          "indexed": false,
          "internalType": "uint256",
          "name": "chainId",
          "type": "uint256"
        }
      ],
      "name": "UserSignedUp",
      "type": "event"
    },
    {
      "anonymous": false,
      "inputs": [
        {
          "indexed": true,
          "internalType": "address",
          "name": "user",
          "type": "address"
        },
        {
          "indexed": false,
          "internalType": "uint256",
          "name": "sharesWithdrawn",
          "type": "uint256"
        },
        {
          "indexed": false,
          "internalType": "uint256",
          "name": "tokenAmount",
          "type": "uint256"
        },
        {
          "indexed": false,
          "internalType": "uint256",
          "name": "chainId",
          "type": "uint256"
        }
      ],
      "name": "WithdrawalRequested",
      "type": "event"
    },
    {
      "inputs": [],
      "name": "SHARES_PER_TOKEN",
      "outputs": [
        {
          "internalType": "uint256",
          "name": "",
          "type": "uint256"
        }
      ],
      "stateMutability": "view",
      "type": "function"
    },
    {
      "inputs": [
        {
          "internalType": "address",
          "name": "",
          "type": "address"
        }
      ],
      "name": "addressToIndex",
      "outputs": [
        {
          "internalType": "uint256",
          "name": "",
          "type": "uint256"
        }
      ],
      "stateMutability": "view",
      "type": "function"
    },
    {
      "inputs": [],
      "name": "admin",
      "outputs": [
        {
          "internalType": "address",
          "name": "",
          "type": "address"
        }
      ],
      "stateMutability": "view",
      "type": "function"
    },
    {
      "inputs": [],
      "name": "chainId",
      "outputs": [
        {
          "internalType": "uint256",
          "name": "",
          "type": "uint256"
        }
      ],
      "stateMutability": "view",
      "type": "function"
    },
    {
      "inputs": [
        {
          "internalType": "uint256",
          "name": "",
          "type": "uint256"
        }
      ],
      "name": "indexToAddress",
      "outputs": [
        {
          "internalType": "address",
          "name": "",
          "type": "address"
        }
      ],
      "stateMutability": "view",
      "type": "function"
    },
    {
      "inputs": [],
      "name": "owner",
      "outputs": [
        {
          "internalType": "address",
          "name": "",
          "type": "address"
        }
      ],
      "stateMutability": "view",
      "type": "function"
    },
    {
      "inputs": [],
      "name": "renounceOwnership",
      "outputs": [],
      "stateMutability": "nonpayable",
      "type": "function"
    },
    {
      "inputs": [
        {
          "internalType": "address",
          "name": "",
          "type": "address"
        }
      ],
      "name": "shares",
      "outputs": [
        {
          "internalType": "uint256",
          "name": "",
          "type": "uint256"
        }
      ],
      "stateMutability": "view",
      "type": "function"
    },
    {
      "inputs": [
        {
          "internalType": "address",
          "name": "newOwner",
          "type": "address"
        }
      ],
      "name": "transferOwnership",
      "outputs": [],
      "stateMutability": "nonpayable",
      "type": "function"
    },
    {
      "inputs": [],
      "name": "userCount",
      "outputs": [
        {
          "internalType": "uint256",
          "name": "",
          "type": "uint256"
        }
      ],
      "stateMutability": "view",
      "type": "function"
    },
    {
      "inputs": [],
      "name": "signUp",
      "outputs": [],
      "stateMutability": "nonpayable",
      "type": "function"
    },
    {
      "inputs": [],
      "name": "deposit",
      "outputs": [],
      "stateMutability": "payable",
      "type": "function"
    },
    {
      "inputs": [
        {
          "internalType": "uint256",
          "name": "_shares",
          "type": "uint256"
        }
      ],
      "name": "requestWithdrawal",
      "outputs": [],
      "stateMutability": "nonpayable",
      "type": "function"
    },
    {
      "inputs": [
        {
          "internalType": "string",
          "name": "_blob",
          "type": "string"
        }
      ],
      "name": "blobUpdate",
      "outputs": [],
      "stateMutability": "nonpayable",
      "type": "function"
    }
  ],
  "bytecode": "0x608060405234801561000f575f80fd5b50604051610d8c380380610d8c83398101604081905261002e9161010f565b806001600160a01b03811661005c57604051631e4fbdf760e01b81525f600482015260240160405180910390fd5b610065816100c0565b50600180546001600160a01b0319166001600160a01b0383161790554660068190556040519081527f84488dc10ae3d24213696784effbb7c5d1dd809ff0bccf773beb11000f14ffb49060200160405180910390a15061013c565b5f80546001600160a01b038381166001600160a01b0319831681178455604051919092169283917f8be0079c531659141344cd1fd0a4f28419497f9722a3daafe3b4186f6b6457e09190a35050565b5f6020828403121561011f575f80fd5b81516001600160a01b0381168114610135575f80fd5b9392505050565b610c43806101495f395ff3fe6080604052600436106100d9575f3560e01c8063bf96ae631161007c578063e61ca81911610057578063e61ca819146101fb578063f2fde38b1461022f578063f667e0aa1461024e578063f851a44014610279575f80fd5b8063bf96ae63146101b4578063ce7c2ac2146101c8578063d0e30db0146101f3575f80fd5b80638c7a4638116100b75780638c7a46381461013a5780638da5cb5b146101505780639a8a0592146101805780639ee679e814610195575f80fd5b806307973ccf146100dd5780634409543714610105578063715018a614610126575b5f80fd5b3480156100e8575f80fd5b506100f260055481565b6040519081526020015b60405180910390f35b348015610110575f80fd5b5061012461011f366004610a63565b610298565b005b348015610131575f80fd5b506101246105ce565b348015610145575f80fd5b506100f2620186a081565b34801561015b575f80fd5b505f546001600160a01b03165b6040516001600160a01b0390911681526020016100fc565b34801561018b575f80fd5b506100f260065481565b3480156101a0575f80fd5b506101246101af366004610b0e565b6105e1565b3480156101bf575f80fd5b506101246106c9565b3480156101d3575f80fd5b506100f26101e2366004610b25565b60046020525f908152604090205481565b6101246107a6565b348015610206575f80fd5b50610168610215366004610b0e565b60026020525f90815260409020546001600160a01b031681565b34801561023a575f80fd5b50610124610249366004610b25565b6108cc565b348015610259575f80fd5b506100f2610268366004610b25565b60036020525f908152604090205481565b348015610284575f80fd5b50600154610168906001600160a01b031681565b6001546001600160a01b031633146103015760405162461bcd60e51b815260206004820152602160248201527f4f6e6c792061646d696e2063616e2063616c6c20746869732066756e6374696f6044820152603760f91b60648201526084015b60405180910390fd5b5f80805f5b84518410156105c7576103198585610909565b5f828152600260205260409020549095509093506001600160a01b03166103725760405162461bcd60e51b815260206004820152600d60248201526c092dcecc2d8d2c840d2dcc8caf609b1b60448201526064016102f8565b84848151811061038457610384610b52565b01602001516001600160f81b031916600f60fb1b036103b35760019150836103ab81610b7a565b945050610427565b8484815181106103c5576103c5610b52565b01602001516001600160f81b031916607960f81b036103eb575f9150836103ab81610b7a565b60405162461bcd60e51b815260206004820152601160248201527024b73b30b634b21037b832b930ba34b7b760791b60448201526064016102f8565b6104318585610909565b945090508115610479575f838152600260209081526040808320546001600160a01b0316835260049091528120805483929061046e908490610b92565b9091555061051b9050565b5f838152600260209081526040808320546001600160a01b0316835260049091529020548111156104e25760405162461bcd60e51b8152602060048201526013602482015272496e73756666696369656e742073686172657360681b60448201526064016102f8565b5f838152600260209081526040808320546001600160a01b03168352600490915281208054839290610515908490610bab565b90915550505b5f838152600260209081526040808320546001600160a01b03168084526004835292819020546006548251918252928101929092527fca7b0799c2d5d6426b3acee9b38a5097d47bf400d836961c2d90472a85ab35fe910160405180910390a28451841080156105af575084848151811061059857610598610b52565b6020910101516001600160f81b031916603d60f91b145b156105c257836105be81610b7a565b9450505b610306565b5050505050565b6105d66109d4565b6105df5f610a00565b565b335f908152600460205260409020548111156106355760405162461bcd60e51b8152602060048201526013602482015272496e73756666696369656e742073686172657360681b60448201526064016102f8565b5f620186a061064c83670de0b6b3a7640000610bbe565b6106569190610bd5565b335f90815260046020526040812080549293508492909190610679908490610bab565b909155505060065460408051848152602081018490529081019190915233907f38e3d972947cfef94205163d483d6287ef27eb312e20cb8e0b13a49989db232e9060600160405180910390a25050565b335f908152600360205260409020541561071e5760405162461bcd60e51b815260206004820152601660248201527505573657220616c7265616479207369676e65642075760541b60448201526064016102f8565b60058054905f61072d83610b7a565b9091555050600580545f90815260026020908152604080832080546001600160a01b0319163390811790915593548484526003909252918290205560065490517fb741faff05a74ac9b597678aced46193d9d2d678143b8c8f1c3125ddee03035a9161079c9190815260200190565b60405180910390a2565b335f9081526003602052604081205490036107f85760405162461bcd60e51b8152602060048201526012602482015271055736572206e6f74207369676e65642075760741b60448201526064016102f8565b5f670de0b6b3a764000061080f620186a034610bbe565b6108199190610bd5565b335f9081526004602052604081208054929350839290919061083c908490610b92565b90915550506001546040516001600160a01b03909116903480156108fc02915f818181858888f19350505050158015610877573d5f803e3d5ffd5b50335f81815260046020526040908190205460065491517fca7b0799c2d5d6426b3acee9b38a5097d47bf400d836961c2d90472a85ab35fe926108c1928252602082015260400190565b60405180910390a250565b6108d46109d4565b6001600160a01b0381166108fd57604051631e4fbdf760e01b81525f60048201526024016102f8565b61090681610a00565b50565b5f8080835b8551811080156109425750600360fc1b86828151811061093057610930610b52565b01602001516001600160f81b03191610155b80156109725750603960f81b86828151811061096057610960610b52565b01602001516001600160f81b03191611155b156109c957603086828151811061098b5761098b610b52565b016020015161099d919060f81c610bf4565b60ff166109ab83600a610bbe565b6109b59190610b92565b9150806109c181610b7a565b91505061090e565b909590945092505050565b5f546001600160a01b031633146105df5760405163118cdaa760e01b81523360048201526024016102f8565b5f80546001600160a01b038381166001600160a01b0319831681178455604051919092169283917f8be0079c531659141344cd1fd0a4f28419497f9722a3daafe3b4186f6b6457e09190a35050565b634e487b7160e01b5f52604160045260245ffd5b5f60208284031215610a73575f80fd5b813567ffffffffffffffff80821115610a8a575f80fd5b818401915084601f830112610a9d575f80fd5b813581811115610aaf57610aaf610a4f565b604051601f8201601f19908116603f01168101908382118183101715610ad757610ad7610a4f565b81604052828152876020848701011115610aef575f80fd5b826020860160208301375f928101602001929092525095945050505050565b5f60208284031215610b1e575f80fd5b5035919050565b5f60208284031215610b35575f80fd5b81356001600160a01b0381168114610b4b575f80fd5b9392505050565b634e487b7160e01b5f52603260045260245ffd5b634e487b7160e01b5f52601160045260245ffd5b5f60018201610b8b57610b8b610b66565b5060010190565b80820180821115610ba557610ba5610b66565b92915050565b81810381811115610ba557610ba5610b66565b8082028115828204841417610ba557610ba5610b66565b5f82610bef57634e487b7160e01b5f52601260045260245ffd5b500490565b60ff8281168282160390811115610ba557610ba5610b6656fea264697066735822122084e2baa268e0e8cb91be0251e7f36c6a337c5134a65bfabc5ef0a4aa1b1e433a64736f6c63430008140033",
  "immutableReferences": {},
  "source": "// SPDX-License-Identifier: MIT\npragma solidity ^0.8.20;\n\nimport \"@openzeppelin/contracts/access/Ownable.sol\";\n\ncontract DepositGraph is Ownable {\n    address public admin;\n    mapping(uint256 => address) public indexToAddress;\n    mapping(address => uint256) public addressToIndex;\n    mapping(address => uint256) public shares;\n    uint256 public userCount;\n    uint256 public constant SHARES_PER_TOKEN = 100000;\n    uint256 public chainId;\n\n    event SharesUpdated(address indexed user, uint256 newShares, uint256 chainId);\n    event WithdrawalRequested(address indexed user, uint256 sharesWithdrawn, uint256 tokenAmount, uint256 chainId);\n    event ChainIdSet(uint256 chainId);\n    event UserSignedUp(address indexed user, uint256 chainId);\n\n    constructor(address _admin) Ownable(_admin) {\n        admin = _admin;\n        chainId = block.chainid;\n        emit ChainIdSet(chainId);\n    }\n\n    modifier onlyAdmin() {\n        require(msg.sender == admin, \"Only admin can call this function\");\n        _;\n    }\n\n    function signUp() external {\n        require(addressToIndex[msg.sender] == 0, \"User already signed up\");\n        userCount++;\n        indexToAddress[userCount] = msg.sender;\n        addressToIndex[msg.sender] = userCount;\n        emit UserSignedUp(msg.sender, chainId);\n    }\n\n    function deposit() external payable {\n        require(addressToIndex[msg.sender] != 0, \"User not signed up\");\n        uint256 newShares = msg.value * SHARES_PER_TOKEN / 1 ether;\n        shares[msg.sender] += newShares;\n        payable(admin).transfer(msg.value);\n        emit SharesUpdated(msg.sender, shares[msg.sender], chainId);\n    }\n\n    function requestWithdrawal(uint256 _shares) external {\n        require(shares[msg.sender] >= _shares, \"Insufficient shares\");\n        uint256 tokenAmount = _shares * 1 ether / SHARES_PER_TOKEN;\n        shares[msg.sender] -= _shares;\n        emit WithdrawalRequested(msg.sender, _shares, tokenAmount, chainId);\n    }\n\n    function blobUpdate(string memory _blob) external onlyAdmin {\n        uint256 i = 0;\n        uint256 index;\n        bool increase;\n        uint256 amount;\n\n        while (i < bytes(_blob).length) {\n            (index, i) = parseNumber(_blob, i);\n            require(indexToAddress[index] != address(0), \"Invalid index\");\n\n            if (bytes(_blob)[i] == 'x') {\n                increase = true;\n                i++;\n            } else if (bytes(_blob)[i] == 'y') {\n                increase = false;\n                i++;\n            } else {\n                revert(\"Invalid operation\");\n            }\n\n            (amount, i) = parseNumber(_blob, i);\n\n            if (increase) {\n                shares[indexToAddress[index]] += amount;\n            } else {\n                require(shares[indexToAddress[index]] >= amount, \"Insufficient shares\");\n                shares[indexToAddress[index]] -= amount;\n            }\n\n            emit SharesUpdated(indexToAddress[index], shares[indexToAddress[index]], chainId);\n\n            if (i < bytes(_blob).length && bytes(_blob)[i] == 'z') {\n                i++;\n            }\n        }\n    }\n\n    function parseNumber(string memory _str, uint256 _start) internal pure returns (uint256, uint256) {\n        uint256 result = 0;\n        uint256 i = _start;\n        while (i < bytes(_str).length && bytes(_str)[i] >= '0' && bytes(_str)[i] <= '9') {\n            result = result * 10 + (uint8(bytes(_str)[i]) - 48);\n            i++;\n        }\n        return (result, i);\n    }\n}",
  "sourcePath": "/Users/dylankawalec/Desktop/dev/DepositGraph/contracts/DepositGraph.sol",
  "compiler": {
    "name": "solc",
    "version": "0.8.20+commit.a1b79de6.Emscripten.clang"
  },
  "schemaVersion": "3.4.16",
  "updatedAt": "2024-07-08T02:40:05.310Z",
  "devdoc": {
    "errors": {
      "OwnableInvalidOwner(address)": [
        {
          "details": "The owner is not a valid owner account. (eg. `address(0)`)"
        }
      ],
      "OwnableUnauthorizedAccount(address)": [
        {
          "details": "The caller account is not authorized to perform an operation."
        }
      ]
    },
    "kind": "dev",
    "methods": {
      "owner()": {
        "details": "Returns the address of the current owner."
      },
      "renounceOwnership()": {
        "details": "Leaves the contract without owner. It will not be possible to call `onlyOwner` functions. Can only be called by the current owner. NOTE: Renouncing ownership will leave the contract without an owner, thereby disabling any functionality that is only available to the owner."
      },
      "transferOwnership(address)": {
        "details": "Transfers ownership of the contract to a new account (`newOwner`). Can only be called by the current owner."
      }
    },
    "version": 1
  },
  "userdoc": {
    "kind": "user",
    "methods": {},
    "version": 1
  }
}