{
  "contractName": "DepositGraph",
  "abi": [
    {
      "inputs": [
        {
          "internalType": "address",
          "name": "_admin",
          "type": "address"
        }
      ],
      "stateMutability": "nonpayable",
      "type": "constructor"
    },
    {
      "inputs": [
        {
          "internalType": "address",
          "name": "owner",
          "type": "address"
        }
      ],
      "name": "OwnableInvalidOwner",
      "type": "error"
    },
    {
      "inputs": [
        {
          "internalType": "address",
          "name": "account",
          "type": "address"
        }
      ],
      "name": "OwnableUnauthorizedAccount",
      "type": "error"
    },
    {
      "inputs": [],
      "name": "ReentrancyGuardReentrantCall",
      "type": "error"
    },
    {
      "anonymous": false,
      "inputs": [
        {
          "indexed": true,
          "internalType": "address",
          "name": "oldAdmin",
          "type": "address"
        },
        {
          "indexed": true,
          "internalType": "address",
          "name": "newAdmin",
          "type": "address"
        }
      ],
      "name": "AdminUpdated",
      "type": "event"
    },
    {
      "anonymous": false,
      "inputs": [
        {
          "indexed": false,
          "internalType": "uint256",
          "name": "chainId",
          "type": "uint256"
        }
      ],
      "name": "ChainIdSet",
      "type": "event"
    },
    {
      "anonymous": false,
      "inputs": [
        {
          "indexed": true,
          "internalType": "address",
          "name": "user",
          "type": "address"
        },
        {
          "indexed": false,
          "internalType": "uint256",
          "name": "amount",
          "type": "uint256"
        },
        {
          "indexed": false,
          "internalType": "uint256",
          "name": "newShares",
          "type": "uint256"
        },
        {
          "indexed": false,
          "internalType": "uint256",
          "name": "chainId",
          "type": "uint256"
        }
      ],
      "name": "Deposit",
      "type": "event"
    },
    {
      "anonymous": false,
      "inputs": [
        {
          "indexed": true,
          "internalType": "address",
          "name": "previousOwner",
          "type": "address"
        },
        {
          "indexed": true,
          "internalType": "address",
          "name": "newOwner",
          "type": "address"
        }
      ],
      "name": "OwnershipTransferred",
      "type": "event"
    },
    {
      "anonymous": false,
      "inputs": [
        {
          "indexed": true,
          "internalType": "address",
          "name": "user",
          "type": "address"
        },
        {
          "indexed": false,
          "internalType": "uint256",
          "name": "newShares",
          "type": "uint256"
        },
        {
          "indexed": false,
          "internalType": "uint256",
          "name": "chainId",
          "type": "uint256"
        }
      ],
      "name": "SharesUpdated",
      "type": "event"
    },
    {
      "anonymous": false,
      "inputs": [
        {
          "indexed": true,
          "internalType": "address",
          "name": "user",
          "type": "address"
        },
        {
          "indexed": false,
          "internalType": "uint256",
          "name": "chainId",
          "type": "uint256"
        }
      ],
      "name": "UserSignedUp",
      "type": "event"
    },
    {
      "anonymous": false,
      "inputs": [
        {
          "indexed": true,
          "internalType": "address",
          "name": "user",
          "type": "address"
        },
        {
          "indexed": false,
          "internalType": "uint256",
          "name": "sharesWithdrawn",
          "type": "uint256"
        },
        {
          "indexed": false,
          "internalType": "uint256",
          "name": "tokenAmount",
          "type": "uint256"
        },
        {
          "indexed": false,
          "internalType": "uint256",
          "name": "chainId",
          "type": "uint256"
        }
      ],
      "name": "WithdrawalRequested",
      "type": "event"
    },
    {
      "inputs": [],
      "name": "SHARES_PER_TOKEN",
      "outputs": [
        {
          "internalType": "uint256",
          "name": "",
          "type": "uint256"
        }
      ],
      "stateMutability": "view",
      "type": "function"
    },
    {
      "inputs": [
        {
          "internalType": "address",
          "name": "",
          "type": "address"
        }
      ],
      "name": "addressToIndex",
      "outputs": [
        {
          "internalType": "uint256",
          "name": "",
          "type": "uint256"
        }
      ],
      "stateMutability": "view",
      "type": "function"
    },
    {
      "inputs": [],
      "name": "admin",
      "outputs": [
        {
          "internalType": "address",
          "name": "",
          "type": "address"
        }
      ],
      "stateMutability": "view",
      "type": "function"
    },
    {
      "inputs": [],
      "name": "chainId",
      "outputs": [
        {
          "internalType": "uint256",
          "name": "",
          "type": "uint256"
        }
      ],
      "stateMutability": "view",
      "type": "function"
    },
    {
      "inputs": [
        {
          "internalType": "uint256",
          "name": "",
          "type": "uint256"
        }
      ],
      "name": "indexToAddress",
      "outputs": [
        {
          "internalType": "address",
          "name": "",
          "type": "address"
        }
      ],
      "stateMutability": "view",
      "type": "function"
    },
    {
      "inputs": [],
      "name": "owner",
      "outputs": [
        {
          "internalType": "address",
          "name": "",
          "type": "address"
        }
      ],
      "stateMutability": "view",
      "type": "function"
    },
    {
      "inputs": [],
      "name": "renounceOwnership",
      "outputs": [],
      "stateMutability": "nonpayable",
      "type": "function"
    },
    {
      "inputs": [
        {
          "internalType": "address",
          "name": "",
          "type": "address"
        }
      ],
      "name": "shares",
      "outputs": [
        {
          "internalType": "uint256",
          "name": "",
          "type": "uint256"
        }
      ],
      "stateMutability": "view",
      "type": "function"
    },
    {
      "inputs": [
        {
          "internalType": "address",
          "name": "newOwner",
          "type": "address"
        }
      ],
      "name": "transferOwnership",
      "outputs": [],
      "stateMutability": "nonpayable",
      "type": "function"
    },
    {
      "inputs": [],
      "name": "userCount",
      "outputs": [
        {
          "internalType": "uint256",
          "name": "",
          "type": "uint256"
        }
      ],
      "stateMutability": "view",
      "type": "function"
    },
    {
      "inputs": [],
      "name": "signUp",
      "outputs": [],
      "stateMutability": "nonpayable",
      "type": "function"
    },
    {
      "inputs": [
        {
          "internalType": "uint256",
          "name": "_amount",
          "type": "uint256"
        }
      ],
      "name": "deposit",
      "outputs": [],
      "stateMutability": "payable",
      "type": "function"
    },
    {
      "inputs": [
        {
          "internalType": "uint256",
          "name": "_shares",
          "type": "uint256"
        }
      ],
      "name": "requestWithdrawal",
      "outputs": [],
      "stateMutability": "nonpayable",
      "type": "function"
    },
    {
      "inputs": [
        {
          "internalType": "string",
          "name": "_blob",
          "type": "string"
        }
      ],
      "name": "blobUpdate",
      "outputs": [],
      "stateMutability": "nonpayable",
      "type": "function"
    },
    {
      "inputs": [
        {
          "internalType": "address",
          "name": "_newAdmin",
          "type": "address"
        }
      ],
      "name": "updateAdmin",
      "outputs": [],
      "stateMutability": "nonpayable",
      "type": "function"
    },
    {
      "inputs": [],
      "name": "getContractBalance",
      "outputs": [
        {
          "internalType": "uint256",
          "name": "",
          "type": "uint256"
        }
      ],
      "stateMutability": "view",
      "type": "function"
    }
  ],
  "bytecode": "0x60a060405234801562000010575f80fd5b506040516200136a3803806200136a833981016040819052620000339162000253565b806001600160a01b0381166200006357604051631e4fbdf760e01b81525f60048201526024015b60405180910390fd5b6200006e8162000204565b50600180556001600160a01b038116620000cb5760405162461bcd60e51b815260206004820152601c60248201527f41646d696e20616464726573732063616e6e6f74206265207a65726f0000000060448201526064016200005a565b336200011a5760405162461bcd60e51b815260206004820152601f60248201527f4465706c6f79657220616464726573732063616e6e6f74206265207a65726f0060448201526064016200005a565b6001600160a01b0381163314620001745760405162461bcd60e51b815260206004820152601a60248201527f41646d696e206d75737420626520746865206465706c6f79657200000000000060448201526064016200005a565b600280546001600160a01b0319166001600160a01b0383161790554660808190526040519081527f84488dc10ae3d24213696784effbb7c5d1dd809ff0bccf773beb11000f14ffb49060200160405180910390a16040516001600160a01b038216905f907f101b8081ff3b56bbf45deb824d86a3b0fd38b7e3dd42421105cf8abe9106db0b908290a35062000282565b5f80546001600160a01b038381166001600160a01b0319831681178455604051919092169283917f8be0079c531659141344cd1fd0a4f28419497f9722a3daafe3b4186f6b6457e09190a35050565b5f6020828403121562000264575f80fd5b81516001600160a01b03811681146200027b575f80fd5b9392505050565b6080516110a5620002c55f395f81816101bb015281816105b70152818161075a015281816107e601528181610a3e01528181610acb0152610bd001526110a55ff3fe6080604052600436106100ef575f3560e01c8063b6b55f2511610087578063e61ca81911610057578063e61ca8191461026d578063f2fde38b146102a1578063f667e0aa146102c0578063f851a440146102eb575f80fd5b8063b6b55f25146101fc578063bf96ae631461020f578063ce7c2ac214610223578063e2f273bd1461024e575f80fd5b80638c7a4638116100c25780638c7a4638146101645780638da5cb5b1461017a5780639a8a0592146101aa5780639ee679e8146101dd575f80fd5b806307973ccf146100f3578063440954371461011b5780636f9fb98a1461013c578063715018a614610150575b5f80fd5b3480156100fe575f80fd5b5061010860065481565b6040519081526020015b60405180910390f35b348015610126575f80fd5b5061013a610135366004610ea2565b61030a565b005b348015610147575f80fd5b5061010861065b565b34801561015b575f80fd5b5061013a61068c565b34801561016f575f80fd5b50610108620186a081565b348015610185575f80fd5b505f546001600160a01b03165b6040516001600160a01b039091168152602001610112565b3480156101b5575f80fd5b506101087f000000000000000000000000000000000000000000000000000000000000000081565b3480156101e8575f80fd5b5061013a6101f7366004610f4d565b61069f565b61013a61020a366004610f4d565b610829565b34801561021a575f80fd5b5061013a610b0c565b34801561022e575f80fd5b5061010861023d366004610f64565b60056020525f908152604090205481565b348015610259575f80fd5b5061013a610268366004610f64565b610c01565b348015610278575f80fd5b50610192610287366004610f4d565b60036020525f90815260409020546001600160a01b031681565b3480156102ac575f80fd5b5061013a6102bb366004610f64565b610cb0565b3480156102cb575f80fd5b506101086102da366004610f64565b60046020525f908152604090205481565b3480156102f6575f80fd5b50600254610192906001600160a01b031681565b6002546001600160a01b0316331461033d5760405162461bcd60e51b815260040161033490610f91565b60405180910390fd5b5f80805f5b8451841015610654576103558585610cea565b5f828152600360205260409020549095509093506001600160a01b03166103ae5760405162461bcd60e51b815260206004820152600d60248201526c092dcecc2d8d2c840d2dcc8caf609b1b6044820152606401610334565b8484815181106103c0576103c0610fd2565b01602001516001600160f81b031916600f60fb1b036103ee57600191506103e78483610db4565b9350610463565b84848151811061040057610400610fd2565b01602001516001600160f81b031916607960f81b03610427575f91506103e7846001610db4565b60405162461bcd60e51b815260206004820152601160248201527024b73b30b634b21037b832b930ba34b7b760791b6044820152606401610334565b61046d8585610cea565b9450905081156104ce575f838152600360209081526040808320546001600160a01b0316835260059091529020546104a59082610db4565b5f848152600360209081526040808320546001600160a01b03168352600590915290205561058a565b5f838152600360209081526040808320546001600160a01b0316835260059091529020548111156105375760405162461bcd60e51b8152602060048201526013602482015272496e73756666696369656e742073686172657360681b6044820152606401610334565b5f838152600360209081526040808320546001600160a01b0316835260059091529020546105659082610dc8565b5f848152600360209081526040808320546001600160a01b0316835260059091529020555b5f838152600360209081526040808320546001600160a01b031680845260058352928190205481519081527f0000000000000000000000000000000000000000000000000000000000000000928101929092527fca7b0799c2d5d6426b3acee9b38a5097d47bf400d836961c2d90472a85ab35fe910160405180910390a284518410801561063c575084848151811061062557610625610fd2565b6020910101516001600160f81b031916603d60f91b145b1561064f5761064c846001610db4565b93505b610342565b5050505050565b6002545f906001600160a01b031633146106875760405162461bcd60e51b815260040161033490610f91565b504790565b610694610dd3565b61069d5f610dff565b565b6106a7610e4e565b335f908152600560205260409020548111156106fb5760405162461bcd60e51b8152602060048201526013602482015272496e73756666696369656e742073686172657360681b6044820152606401610334565b5f61071b620186a061071584670de0b6b3a7640000610e78565b90610e83565b335f908152600560205260409020549091506107379083610dc8565b335f818152600560209081526040918290209390935580518581529283018490527f000000000000000000000000000000000000000000000000000000000000000090830152907f38e3d972947cfef94205163d483d6287ef27eb312e20cb8e0b13a49989db232e9060600160405180910390a2335f81815260056020526040908190205490517fca7b0799c2d5d6426b3acee9b38a5097d47bf400d836961c2d90472a85ab35fe91610814917f000000000000000000000000000000000000000000000000000000000000000090918252602082015260400190565b60405180910390a25061082660018055565b50565b610831610e4e565b335f9081526004602052604081205490036108835760405162461bcd60e51b8152602060048201526012602482015271055736572206e6f74207369676e65642075760741b6044820152606401610334565b8034146108e95760405162461bcd60e51b815260206004820152602e60248201527f53656e742076616c756520646f6573206e6f74206d617463682074686520737060448201526d1958da599a595908185b5bdd5b9d60921b6064820152608401610334565b5f81116109465760405162461bcd60e51b815260206004820152602560248201527f4465706f73697420616d6f756e74206d75737420626520677265617465722074604482015264068616e20360dc1b6064820152608401610334565b5f610960670de0b6b3a764000061071584620186a0610e78565b335f9081526005602052604090205490915061097c9082610db4565b335f9081526005602052604080822092909255600254915190916001600160a01b03169084908381818185875af1925050503d805f81146109d8576040519150601f19603f3d011682016040523d82523d5f602084013e6109dd565b606091505b5050905080610a2e5760405162461bcd60e51b815260206004820152601860248201527f5472616e7366657220746f2061646d696e206661696c656400000000000000006044820152606401610334565b60408051848152602081018490527f000000000000000000000000000000000000000000000000000000000000000081830152905133917f36af321ec8d3c75236829c5317affd40ddb308863a1236d2d277a4025cccee1e919081900360600190a2335f81815260056020526040908190205490517fca7b0799c2d5d6426b3acee9b38a5097d47bf400d836961c2d90472a85ab35fe91610af9917f000000000000000000000000000000000000000000000000000000000000000090918252602082015260400190565b60405180910390a2505061082660018055565b335f9081526004602052604090205415610b615760405162461bcd60e51b815260206004820152601660248201527505573657220616c7265616479207369676e65642075760541b6044820152606401610334565b600654610b6f906001610db4565b60068181555f91825260036020908152604080842080546001600160a01b0319163390811790915592548385526004909252928390205590517fb741faff05a74ac9b597678aced46193d9d2d678143b8c8f1c3125ddee03035a90610bf7907f0000000000000000000000000000000000000000000000000000000000000000815260200190565b60405180910390a2565b610c09610dd3565b6001600160a01b038116610c5f5760405162461bcd60e51b815260206004820181905260248201527f4e65772061646d696e20616464726573732063616e6e6f74206265207a65726f6044820152606401610334565b600280546001600160a01b038381166001600160a01b0319831681179093556040519116919082907f101b8081ff3b56bbf45deb824d86a3b0fd38b7e3dd42421105cf8abe9106db0b905f90a35050565b610cb8610dd3565b6001600160a01b038116610ce157604051631e4fbdf760e01b81525f6004820152602401610334565b61082681610dff565b5f8080835b855181108015610d235750600360fc1b868281518110610d1157610d11610fd2565b01602001516001600160f81b03191610155b8015610d535750603960f81b868281518110610d4157610d41610fd2565b01602001516001600160f81b03191611155b15610da957610d956030878381518110610d6f57610d6f610fd2565b0160200151610d81919060f81c610ffa565b60ff16610d8f84600a610e78565b90610db4565b9150610da2816001610db4565b9050610cef565b909590945092505050565b5f610dbf8284611013565b90505b92915050565b5f610dbf8284611026565b5f546001600160a01b0316331461069d5760405163118cdaa760e01b8152336004820152602401610334565b5f80546001600160a01b038381166001600160a01b0319831681178455604051919092169283917f8be0079c531659141344cd1fd0a4f28419497f9722a3daafe3b4186f6b6457e09190a35050565b600260015403610e7157604051633ee5aeb560e01b815260040160405180910390fd5b6002600155565b5f610dbf8284611039565b5f610dbf8284611050565b634e487b7160e01b5f52604160045260245ffd5b5f60208284031215610eb2575f80fd5b813567ffffffffffffffff80821115610ec9575f80fd5b818401915084601f830112610edc575f80fd5b813581811115610eee57610eee610e8e565b604051601f8201601f19908116603f01168101908382118183101715610f1657610f16610e8e565b81604052828152876020848701011115610f2e575f80fd5b826020860160208301375f928101602001929092525095945050505050565b5f60208284031215610f5d575f80fd5b5035919050565b5f60208284031215610f74575f80fd5b81356001600160a01b0381168114610f8a575f80fd5b9392505050565b60208082526021908201527f4f6e6c792061646d696e2063616e2063616c6c20746869732066756e6374696f6040820152603760f91b606082015260800190565b634e487b7160e01b5f52603260045260245ffd5b634e487b7160e01b5f52601160045260245ffd5b60ff8281168282160390811115610dc257610dc2610fe6565b80820180821115610dc257610dc2610fe6565b81810381811115610dc257610dc2610fe6565b8082028115828204841417610dc257610dc2610fe6565b5f8261106a57634e487b7160e01b5f52601260045260245ffd5b50049056fea264697066735822122098655c9144bc2a5401485e6aa44435565874e6e8268776ae97dc53f96e6d7ee764736f6c63430008140033",
  "immutableReferences": {
    "591": [
      {
        "length": 32,
        "start": 443
      },
      {
        "length": 32,
        "start": 1463
      },
      {
        "length": 32,
        "start": 1882
      },
      {
        "length": 32,
        "start": 2022
      },
      {
        "length": 32,
        "start": 2622
      },
      {
        "length": 32,
        "start": 2763
      },
      {
        "length": 32,
        "start": 3024
      }
    ]
  },
  "source": "// SPDX-License-Identifier: MIT\npragma solidity ^0.8.20;\n\nimport \"@openzeppelin/contracts/access/Ownable.sol\";\nimport \"@openzeppelin/contracts/utils/ReentrancyGuard.sol\";\nimport \"@openzeppelin/contracts/utils/math/SafeMath.sol\";\n\ncontract DepositGraph is Ownable, ReentrancyGuard {\n    using SafeMath for uint256;\n\n    address public admin;\n    mapping(uint256 => address) public indexToAddress;\n    mapping(address => uint256) public addressToIndex;\n    mapping(address => uint256) public shares;\n    uint256 public userCount;\n    uint256 public constant SHARES_PER_TOKEN = 100000;\n    uint256 public immutable chainId;\n\n    event SharesUpdated(address indexed user, uint256 newShares, uint256 chainId);\n    event WithdrawalRequested(address indexed user, uint256 sharesWithdrawn, uint256 tokenAmount, uint256 chainId);\n    event ChainIdSet(uint256 chainId);\n    event UserSignedUp(address indexed user, uint256 chainId);\n    event Deposit(address indexed user, uint256 amount, uint256 newShares, uint256 chainId);\n    event AdminUpdated(address indexed oldAdmin, address indexed newAdmin);\n\n    constructor(address _admin) Ownable(_admin) {\n        require(_admin != address(0), \"Admin address cannot be zero\");\n        require(msg.sender != address(0), \"Deployer address cannot be zero\");\n        require(_admin == msg.sender, \"Admin must be the deployer\");\n        admin = _admin;\n        chainId = block.chainid;\n        emit ChainIdSet(chainId);\n        emit AdminUpdated(address(0), _admin);\n    }\n\n    modifier onlyAdmin() {\n        require(msg.sender == admin, \"Only admin can call this function\");\n        _;\n    }\n\n    function signUp() external {\n        require(addressToIndex[msg.sender] == 0, \"User already signed up\");\n        userCount = userCount.add(1);\n        indexToAddress[userCount] = msg.sender;\n        addressToIndex[msg.sender] = userCount;\n        emit UserSignedUp(msg.sender, chainId);\n    }\n\n    function deposit(uint256 _amount) external payable nonReentrant {\n        require(addressToIndex[msg.sender] != 0, \"User not signed up\");\n        require(msg.value == _amount, \"Sent value does not match the specified amount\");\n        require(_amount > 0, \"Deposit amount must be greater than 0\");\n        \n        uint256 newShares = _amount.mul(SHARES_PER_TOKEN).div(1 ether);\n        shares[msg.sender] = shares[msg.sender].add(newShares);\n        \n        (bool success, ) = payable(admin).call{value: _amount}(\"\");\n        require(success, \"Transfer to admin failed\");\n        \n        emit Deposit(msg.sender, _amount, newShares, chainId);\n        emit SharesUpdated(msg.sender, shares[msg.sender], chainId);\n    }\n\n    function requestWithdrawal(uint256 _shares) external nonReentrant {\n        require(shares[msg.sender] >= _shares, \"Insufficient shares\");\n        uint256 tokenAmount = _shares.mul(1 ether).div(SHARES_PER_TOKEN);\n        shares[msg.sender] = shares[msg.sender].sub(_shares);\n        emit WithdrawalRequested(msg.sender, _shares, tokenAmount, chainId);\n        emit SharesUpdated(msg.sender, shares[msg.sender], chainId);\n    }\n\n    function blobUpdate(string memory _blob) external onlyAdmin {\n        uint256 i = 0;\n        uint256 index;\n        bool increase;\n        uint256 amount;\n\n        while (i < bytes(_blob).length) {\n            (index, i) = parseNumber(_blob, i);\n            require(indexToAddress[index] != address(0), \"Invalid index\");\n\n            if (bytes(_blob)[i] == 'x') {\n                increase = true;\n                i = i.add(1);\n            } else if (bytes(_blob)[i] == 'y') {\n                increase = false;\n                i = i.add(1);\n            } else {\n                revert(\"Invalid operation\");\n            }\n\n            (amount, i) = parseNumber(_blob, i);\n\n            if (increase) {\n                shares[indexToAddress[index]] = shares[indexToAddress[index]].add(amount);\n            } else {\n                require(shares[indexToAddress[index]] >= amount, \"Insufficient shares\");\n                shares[indexToAddress[index]] = shares[indexToAddress[index]].sub(amount);\n            }\n\n            emit SharesUpdated(indexToAddress[index], shares[indexToAddress[index]], chainId);\n\n            if (i < bytes(_blob).length && bytes(_blob)[i] == 'z') {\n                i = i.add(1);\n            }\n        }\n    }\n\n   function parseNumber(string memory _str, uint256 _start) internal pure returns (uint256, uint256) {\n    uint256 result = 0;\n    uint256 i = _start;\n    while (i < bytes(_str).length && bytes(_str)[i] >= '0' && bytes(_str)[i] <= '9') {\n        result = result.mul(10).add((uint8(bytes(_str)[i])) - 48); // Changed `bytes1` to `uint8`\n        i = i.add(1);\n    }\n    return (result, i);\n}\n\n    function updateAdmin(address _newAdmin) external onlyOwner {\n        require(_newAdmin != address(0), \"New admin address cannot be zero\");\n        address oldAdmin = admin;\n        admin = _newAdmin;\n        emit AdminUpdated(oldAdmin, _newAdmin);\n    }\n\n    function getContractBalance() external view onlyAdmin returns (uint256) {\n        return address(this).balance;\n    }\n}",
  "sourcePath": "/Users/dylankawalec/Desktop/dev/DepositGraph/contracts/DepositGraph.sol",
  "compiler": {
    "name": "solc",
    "version": "0.8.20+commit.a1b79de6.Emscripten.clang"
  },
  "schemaVersion": "3.4.16",
  "updatedAt": "2024-07-08T04:41:17.288Z",
  "networkType": "ethereum",
  "devdoc": {
    "errors": {
      "OwnableInvalidOwner(address)": [
        {
          "details": "The owner is not a valid owner account. (eg. `address(0)`)"
        }
      ],
      "OwnableUnauthorizedAccount(address)": [
        {
          "details": "The caller account is not authorized to perform an operation."
        }
      ],
      "ReentrancyGuardReentrantCall()": [
        {
          "details": "Unauthorized reentrant call."
        }
      ]
    },
    "kind": "dev",
    "methods": {
      "owner()": {
        "details": "Returns the address of the current owner."
      },
      "renounceOwnership()": {
        "details": "Leaves the contract without owner. It will not be possible to call `onlyOwner` functions. Can only be called by the current owner. NOTE: Renouncing ownership will leave the contract without an owner, thereby disabling any functionality that is only available to the owner."
      },
      "transferOwnership(address)": {
        "details": "Transfers ownership of the contract to a new account (`newOwner`). Can only be called by the current owner."
      }
    },
    "version": 1
  },
  "userdoc": {
    "kind": "user",
    "methods": {},
    "version": 1
  }
}