{
  "contractName": "DepositGraph",
  "abi": [
    {
      "inputs": [
        {
          "internalType": "address",
          "name": "_admin",
          "type": "address"
        }
      ],
      "stateMutability": "nonpayable",
      "type": "constructor"
    },
    {
      "inputs": [
        {
          "internalType": "address",
          "name": "owner",
          "type": "address"
        }
      ],
      "name": "OwnableInvalidOwner",
      "type": "error"
    },
    {
      "inputs": [
        {
          "internalType": "address",
          "name": "account",
          "type": "address"
        }
      ],
      "name": "OwnableUnauthorizedAccount",
      "type": "error"
    },
    {
      "anonymous": false,
      "inputs": [
        {
          "indexed": false,
          "internalType": "uint256",
          "name": "chainId",
          "type": "uint256"
        }
      ],
      "name": "ChainIdSet",
      "type": "event"
    },
    {
      "anonymous": false,
      "inputs": [
        {
          "indexed": true,
          "internalType": "address",
          "name": "previousOwner",
          "type": "address"
        },
        {
          "indexed": true,
          "internalType": "address",
          "name": "newOwner",
          "type": "address"
        }
      ],
      "name": "OwnershipTransferred",
      "type": "event"
    },
    {
      "anonymous": false,
      "inputs": [
        {
          "indexed": true,
          "internalType": "address",
          "name": "user",
          "type": "address"
        },
        {
          "indexed": false,
          "internalType": "uint256",
          "name": "newShares",
          "type": "uint256"
        },
        {
          "indexed": false,
          "internalType": "uint256",
          "name": "chainId",
          "type": "uint256"
        }
      ],
      "name": "SharesUpdated",
      "type": "event"
    },
    {
      "anonymous": false,
      "inputs": [
        {
          "indexed": true,
          "internalType": "address",
          "name": "user",
          "type": "address"
        },
        {
          "indexed": false,
          "internalType": "uint256",
          "name": "sharesWithdrawn",
          "type": "uint256"
        },
        {
          "indexed": false,
          "internalType": "uint256",
          "name": "ethAmount",
          "type": "uint256"
        },
        {
          "indexed": false,
          "internalType": "uint256",
          "name": "chainId",
          "type": "uint256"
        }
      ],
      "name": "WithdrawalRequested",
      "type": "event"
    },
    {
      "inputs": [],
      "name": "SHARES_PER_ETH",
      "outputs": [
        {
          "internalType": "uint256",
          "name": "",
          "type": "uint256"
        }
      ],
      "stateMutability": "view",
      "type": "function",
      "constant": true
    },
    {
      "inputs": [
        {
          "internalType": "address",
          "name": "",
          "type": "address"
        }
      ],
      "name": "addressToIndex",
      "outputs": [
        {
          "internalType": "uint256",
          "name": "",
          "type": "uint256"
        }
      ],
      "stateMutability": "view",
      "type": "function",
      "constant": true
    },
    {
      "inputs": [],
      "name": "admin",
      "outputs": [
        {
          "internalType": "address",
          "name": "",
          "type": "address"
        }
      ],
      "stateMutability": "view",
      "type": "function",
      "constant": true
    },
    {
      "inputs": [],
      "name": "chainId",
      "outputs": [
        {
          "internalType": "uint256",
          "name": "",
          "type": "uint256"
        }
      ],
      "stateMutability": "view",
      "type": "function",
      "constant": true
    },
    {
      "inputs": [
        {
          "internalType": "uint256",
          "name": "",
          "type": "uint256"
        }
      ],
      "name": "indexToAddress",
      "outputs": [
        {
          "internalType": "address",
          "name": "",
          "type": "address"
        }
      ],
      "stateMutability": "view",
      "type": "function",
      "constant": true
    },
    {
      "inputs": [],
      "name": "owner",
      "outputs": [
        {
          "internalType": "address",
          "name": "",
          "type": "address"
        }
      ],
      "stateMutability": "view",
      "type": "function",
      "constant": true
    },
    {
      "inputs": [],
      "name": "renounceOwnership",
      "outputs": [],
      "stateMutability": "nonpayable",
      "type": "function"
    },
    {
      "inputs": [
        {
          "internalType": "address",
          "name": "",
          "type": "address"
        }
      ],
      "name": "shares",
      "outputs": [
        {
          "internalType": "uint256",
          "name": "",
          "type": "uint256"
        }
      ],
      "stateMutability": "view",
      "type": "function",
      "constant": true
    },
    {
      "inputs": [
        {
          "internalType": "address",
          "name": "newOwner",
          "type": "address"
        }
      ],
      "name": "transferOwnership",
      "outputs": [],
      "stateMutability": "nonpayable",
      "type": "function"
    },
    {
      "inputs": [],
      "name": "userCount",
      "outputs": [
        {
          "internalType": "uint256",
          "name": "",
          "type": "uint256"
        }
      ],
      "stateMutability": "view",
      "type": "function",
      "constant": true
    },
    {
      "inputs": [],
      "name": "signUp",
      "outputs": [],
      "stateMutability": "nonpayable",
      "type": "function"
    },
    {
      "inputs": [],
      "name": "deposit",
      "outputs": [],
      "stateMutability": "payable",
      "type": "function",
      "payable": true
    },
    {
      "inputs": [
        {
          "internalType": "uint256",
          "name": "_shares",
          "type": "uint256"
        }
      ],
      "name": "withdraw",
      "outputs": [],
      "stateMutability": "nonpayable",
      "type": "function"
    },
    {
      "inputs": [
        {
          "internalType": "string",
          "name": "_blob",
          "type": "string"
        }
      ],
      "name": "blobUpdate",
      "outputs": [],
      "stateMutability": "nonpayable",
      "type": "function"
    }
  ],
  "bytecode": "0x608060405234801561000f575f80fd5b50604051610d42380380610d4283398101604081905261002e9161010f565b806001600160a01b03811661005c57604051631e4fbdf760e01b81525f600482015260240160405180910390fd5b610065816100c0565b50600180546001600160a01b0319166001600160a01b0383161790554660068190556040519081527f84488dc10ae3d24213696784effbb7c5d1dd809ff0bccf773beb11000f14ffb49060200160405180910390a15061013c565b5f80546001600160a01b038381166001600160a01b0319831681178455604051919092169283917f8be0079c531659141344cd1fd0a4f28419497f9722a3daafe3b4186f6b6457e09190a35050565b5f6020828403121561011f575f80fd5b81516001600160a01b0381168114610135575f80fd5b9392505050565b610bf9806101495f395ff3fe6080604052600436106100d9575f3560e01c8063bf96ae631161007c578063e61ca81911610057578063e61ca819146101fb578063f2fde38b1461022f578063f667e0aa1461024e578063f851a44014610279575f80fd5b8063bf96ae63146101b4578063ce7c2ac2146101c8578063d0e30db0146101f3575f80fd5b806344095437116100b7578063440954371461013c578063715018a61461015b5780638da5cb5b1461016f5780639a8a05921461019f575f80fd5b806307973ccf146100dd578063222c0b11146101055780632e1a7d4d1461011b575b5f80fd5b3480156100e8575f80fd5b506100f260055481565b6040519081526020015b60405180910390f35b348015610110575f80fd5b506100f2620186a081565b348015610126575f80fd5b5061013a610135366004610a05565b610298565b005b348015610147575f80fd5b5061013a610156366004610a30565b6103b0565b348015610166575f80fd5b5061013a6106e1565b34801561017a575f80fd5b505f546001600160a01b03165b6040516001600160a01b0390911681526020016100fc565b3480156101aa575f80fd5b506100f260065481565b3480156101bf575f80fd5b5061013a6106f4565b3480156101d3575f80fd5b506100f26101e2366004610adb565b60046020525f908152604090205481565b61013a610793565b348015610206575f80fd5b50610187610215366004610a05565b60026020525f90815260409020546001600160a01b031681565b34801561023a575f80fd5b5061013a610249366004610adb565b610882565b348015610259575f80fd5b506100f2610268366004610adb565b60036020525f908152604090205481565b348015610284575f80fd5b50600154610187906001600160a01b031681565b335f908152600460205260409020548111156102f15760405162461bcd60e51b8152602060048201526013602482015272496e73756666696369656e742073686172657360681b60448201526064015b60405180910390fd5b5f620186a061030883670de0b6b3a7640000610b1c565b6103129190610b39565b335f90815260046020526040812080549293508492909190610335908490610b58565b909155505060065460408051848152602081018490529081019190915233907f38e3d972947cfef94205163d483d6287ef27eb312e20cb8e0b13a49989db232e9060600160405180910390a2604051339082156108fc029083905f818181858888f193505050501580156103ab573d5f803e3d5ffd5b505050565b6001546001600160a01b031633146104145760405162461bcd60e51b815260206004820152602160248201527f4f6e6c792061646d696e2063616e2063616c6c20746869732066756e6374696f6044820152603760f91b60648201526084016102e8565b5f80805f5b84518410156106da5761042c85856108bf565b5f828152600260205260409020549095509093506001600160a01b03166104855760405162461bcd60e51b815260206004820152600d60248201526c092dcecc2d8d2c840d2dcc8caf609b1b60448201526064016102e8565b84848151811061049757610497610b6b565b01602001516001600160f81b031916600f60fb1b036104c65760019150836104be81610b7f565b94505061053a565b8484815181106104d8576104d8610b6b565b01602001516001600160f81b031916607960f81b036104fe575f9150836104be81610b7f565b60405162461bcd60e51b815260206004820152601160248201527024b73b30b634b21037b832b930ba34b7b760791b60448201526064016102e8565b61054485856108bf565b94509050811561058c575f838152600260209081526040808320546001600160a01b03168352600490915281208054839290610581908490610b97565b9091555061062e9050565b5f838152600260209081526040808320546001600160a01b0316835260049091529020548111156105f55760405162461bcd60e51b8152602060048201526013602482015272496e73756666696369656e742073686172657360681b60448201526064016102e8565b5f838152600260209081526040808320546001600160a01b03168352600490915281208054839290610628908490610b58565b90915550505b5f838152600260209081526040808320546001600160a01b03168084526004835292819020546006548251918252928101929092527fca7b0799c2d5d6426b3acee9b38a5097d47bf400d836961c2d90472a85ab35fe910160405180910390a28451841080156106c257508484815181106106ab576106ab610b6b565b6020910101516001600160f81b031916603d60f91b145b156106d557836106d181610b7f565b9450505b610419565b5050505050565b6106e961098a565b6106f25f6109b6565b565b335f90815260036020526040902054156107495760405162461bcd60e51b815260206004820152601660248201527505573657220616c7265616479207369676e65642075760541b60448201526064016102e8565b60058054905f61075883610b7f565b9091555050600580545f90815260026020908152604080832080546001600160a01b0319163390811790915593549383526003909152902055565b335f9081526003602052604081205490036107e55760405162461bcd60e51b8152602060048201526012602482015271055736572206e6f74207369676e65642075760741b60448201526064016102e8565b5f670de0b6b3a76400006107fc620186a034610b1c565b6108069190610b39565b335f90815260046020526040812080549293508392909190610829908490610b97565b9091555050335f81815260046020526040908190205460065491517fca7b0799c2d5d6426b3acee9b38a5097d47bf400d836961c2d90472a85ab35fe92610877928252602082015260400190565b60405180910390a250565b61088a61098a565b6001600160a01b0381166108b357604051631e4fbdf760e01b81525f60048201526024016102e8565b6108bc816109b6565b50565b5f8080835b8551811080156108f85750600360fc1b8682815181106108e6576108e6610b6b565b01602001516001600160f81b03191610155b80156109285750603960f81b86828151811061091657610916610b6b565b01602001516001600160f81b03191611155b1561097f57603086828151811061094157610941610b6b565b0160200151610953919060f81c610baa565b60ff1661096183600a610b1c565b61096b9190610b97565b91508061097781610b7f565b9150506108c4565b909590945092505050565b5f546001600160a01b031633146106f25760405163118cdaa760e01b81523360048201526024016102e8565b5f80546001600160a01b038381166001600160a01b0319831681178455604051919092169283917f8be0079c531659141344cd1fd0a4f28419497f9722a3daafe3b4186f6b6457e09190a35050565b5f60208284031215610a15575f80fd5b5035919050565b634e487b7160e01b5f52604160045260245ffd5b5f60208284031215610a40575f80fd5b813567ffffffffffffffff80821115610a57575f80fd5b818401915084601f830112610a6a575f80fd5b813581811115610a7c57610a7c610a1c565b604051601f8201601f19908116603f01168101908382118183101715610aa457610aa4610a1c565b81604052828152876020848701011115610abc575f80fd5b826020860160208301375f928101602001929092525095945050505050565b5f60208284031215610aeb575f80fd5b81356001600160a01b0381168114610b01575f80fd5b9392505050565b634e487b7160e01b5f52601160045260245ffd5b8082028115828204841417610b3357610b33610b08565b92915050565b5f82610b5357634e487b7160e01b5f52601260045260245ffd5b500490565b81810381811115610b3357610b33610b08565b634e487b7160e01b5f52603260045260245ffd5b5f60018201610b9057610b90610b08565b5060010190565b80820180821115610b3357610b33610b08565b60ff8281168282160390811115610b3357610b33610b0856fea2646970667358221220ba7875c4cab2386fe167a662d56236f8f405345594f469666ea4d47ddc0f037d64736f6c63430008140033",
  "immutableReferences": {},
  "source": "// SPDX-License-Identifier: MIT\npragma solidity ^0.8.20;\n\nimport \"@openzeppelin/contracts/access/Ownable.sol\";\n\ncontract DepositGraph is Ownable {\n    address public admin;\n    mapping(uint256 => address) public indexToAddress;\n    mapping(address => uint256) public addressToIndex;\n    mapping(address => uint256) public shares;\n    uint256 public userCount;\n    uint256 public constant SHARES_PER_ETH = 100000;\n    uint256 public chainId;\n\n    event SharesUpdated(address indexed user, uint256 newShares, uint256 chainId);\n    event WithdrawalRequested(address indexed user, uint256 sharesWithdrawn, uint256 ethAmount, uint256 chainId);\n    event ChainIdSet(uint256 chainId);\n\n    constructor(address _admin) Ownable(_admin) {\n        admin = _admin;\n        chainId = block.chainid;\n        emit ChainIdSet(chainId);\n    }\n\n    modifier onlyAdmin() {\n        require(msg.sender == admin, \"Only admin can call this function\");\n        _;\n    }\n\n    function signUp() external {\n        require(addressToIndex[msg.sender] == 0, \"User already signed up\");\n        userCount++;\n        indexToAddress[userCount] = msg.sender;\n        addressToIndex[msg.sender] = userCount;\n    }\n\n    function deposit() external payable {\n        require(addressToIndex[msg.sender] != 0, \"User not signed up\");\n        uint256 newShares = msg.value * SHARES_PER_ETH / 1 ether;\n        shares[msg.sender] += newShares;\n        emit SharesUpdated(msg.sender, shares[msg.sender], chainId);\n    }\n\n    function withdraw(uint256 _shares) external {\n        require(shares[msg.sender] >= _shares, \"Insufficient shares\");\n        uint256 ethAmount = _shares * 1 ether / SHARES_PER_ETH;\n        shares[msg.sender] -= _shares;\n        emit WithdrawalRequested(msg.sender, _shares, ethAmount, chainId);\n        payable(msg.sender).transfer(ethAmount);\n    }\n\n    function blobUpdate(string memory _blob) external onlyAdmin {\n        uint256 i = 0;\n        uint256 index;\n        bool increase;\n        uint256 amount;\n\n        while (i < bytes(_blob).length) {\n            (index, i) = parseNumber(_blob, i);\n            require(indexToAddress[index] != address(0), \"Invalid index\");\n\n            if (bytes(_blob)[i] == 'x') {\n                increase = true;\n                i++;\n            } else if (bytes(_blob)[i] == 'y') {\n                increase = false;\n                i++;\n            } else {\n                revert(\"Invalid operation\");\n            }\n\n            (amount, i) = parseNumber(_blob, i);\n\n            if (increase) {\n                shares[indexToAddress[index]] += amount;\n            } else {\n                require(shares[indexToAddress[index]] >= amount, \"Insufficient shares\");\n                shares[indexToAddress[index]] -= amount;\n            }\n\n            emit SharesUpdated(indexToAddress[index], shares[indexToAddress[index]], chainId);\n\n            if (i < bytes(_blob).length && bytes(_blob)[i] == 'z') {\n                i++;\n            }\n        }\n    }\n\n    function parseNumber(string memory _str, uint256 _start) internal pure returns (uint256, uint256) {\n        uint256 result = 0;\n        uint256 i = _start;\n        while (i < bytes(_str).length && bytes(_str)[i] >= '0' && bytes(_str)[i] <= '9') {\n            result = result * 10 + (uint8(bytes(_str)[i]) - 48);\n            i++;\n        }\n        return (result, i);\n    }\n}\n",
  "sourcePath": "/Users/dylankawalec/Desktop/dev/DepositGraph/contracts/DepositGraph.sol",
  "compiler": {
    "name": "solc",
    "version": "0.8.20+commit.a1b79de6.Emscripten.clang"
  },
  "schemaVersion": "3.4.16",
  "updatedAt": "2024-07-05T00:20:03.994Z",
  "networkType": "ethereum",
  "devdoc": {
    "errors": {
      "OwnableInvalidOwner(address)": [
        {
          "details": "The owner is not a valid owner account. (eg. `address(0)`)"
        }
      ],
      "OwnableUnauthorizedAccount(address)": [
        {
          "details": "The caller account is not authorized to perform an operation."
        }
      ]
    },
    "kind": "dev",
    "methods": {
      "owner()": {
        "details": "Returns the address of the current owner."
      },
      "renounceOwnership()": {
        "details": "Leaves the contract without owner. It will not be possible to call `onlyOwner` functions. Can only be called by the current owner. NOTE: Renouncing ownership will leave the contract without an owner, thereby disabling any functionality that is only available to the owner."
      },
      "transferOwnership(address)": {
        "details": "Transfers ownership of the contract to a new account (`newOwner`). Can only be called by the current owner."
      }
    },
    "version": 1
  },
  "userdoc": {
    "kind": "user",
    "methods": {},
    "version": 1
  }
}